:100000000C9434000C943E000C943E000C943E0082
:100010000C943E000C943E000C943E000C943E0068
:100020000C943E000C943E000C943E000C943E0058
:100030000C943E000C943E000C943E000C943E0048
:100040000C943E000C943E000C943E000C943E0038
:100050000C943E000C943E000C943E000C943E0028
:100060000C943E000C943E0011241FBECFEFD8E04C
:10007000DEBFCDBF0E944B000C946E000C940000BC
:100080009BB121E030E002C0220F331F8A95E2F7D6
:1000900029272BB908958AB184648AB987B18F7EE4
:1000A00087B988B1806188B9D0E0C0E0CF5FCC3833
:1000B00021F486E00E944000C0E0349906C0D111CE
:1000C00004C082E00E944000D1E03499D0E08FEC7F
:1000D00097E00197F1F700C00000E8CFF894FFCF58
:00000001FF
