S01B000050726F796563746F2070726F626C656D6120332E73726563EF
S11300000C9434000C9449000C9449000C9449005D
S11300100C9449000C9449000C9449000C94490038
S11300200C9449000C9449000C9449000C94490028
S11300300C9449000C9449000C9449000C94490018
S11300400C9449000C9449000C9449000C94490008
S11300500C9449000C9449000C9449000C944900F8
S11300600C9449000C94490011241FBECFEFD8E032
S1130070DEBFCDBF11E0A0E0B1E0EEE3F1E002C0ED
S113008005900D92A031B107D9F70E946D000C9430
S11300909D000C940000189906C0FB0120812130BA
S11300A021F020E003C020E001C021E0222389F0F8
S11300B0FA0120812F5F2083203109F41082FB0193
S11300C01082FA012081FC01E20FF11D808185B9C3
S11300D0089581E0FB0180830895CF93DF93CDB72A
S11300E0DEB762970FB6F894DEBF0FBECDBF84B102
S11300F08E7F84B985B18E7F85B984B18E6F84B9C2
S1130100198280E1E0E0F1E0DE01129601900D92A7
S11301108A95E1F781E08A8BAE014F5F5F4FBE01A4
S11301206E5E7F4FCE0102960E944B008FE19EE4EB
S11101300197F1F700C00000EFCFF894FFCF65
S113013E3F065B4F666D7D077F6F777C395E797105
S9030000FC
