S012000050726F796563746F32322E7372656359
S11300000C9434000C9446000C9446000C94460066
S11300100C9446000C9446000C9446000C94460044
S11300200C9446000C9446000C9446000C94460034
S11300300C9446000C9446000C9446000C94460024
S11300400C9446000C9446000C9446000C94460014
S11300500C9446000C9446000C9446000C94460004
S11300600C9446000C94460011241FBECFEFD8E038
S1130070DEBFCDBF21E0A0E0B1E001C01D92A330FE
S1130080B207E1F70E9482000C94B2000C940000C5
S1130090809102018F5F80930201909101019F5F23
S11300A090930101803531F49BB180E489278BB9A9
S11300B010920201809101018C3831F49BB184E0EB
S11300C089278BB9109201010895809102018F5FF5
S11300D080930201909101019F5F90930101843B01
S11300E031F49BB180E489278BB91092020180918D
S11300F00101883231F49BB184E089278BB91092D5
S1130100010108958AB184648AB98BB18B7B8BB960
S113011087B18F7C87B9349904C0359904C080E0D5
S113012003C080E001C081E0882319F0109200012F
S113013009C0349B02C0359B81E0882319F081E01B
S11301408093000180910001811103C00E94480046
S113015002C00E9465008FE097E20197F1F700C0AA
S10B01600000D9CFF894FFCF91
S9030000FC
