:100000000C9434000C9451000C9451000C94510049
:100010000C9451000C9451000C9451000C9451001C
:100020000C9451000C9451000C9451000C9451000C
:100030000C9451000C9451000C9451000C945100FC
:100040000C9451000C9451000C9451000C945100EC
:100050000C9451000C9451000C9451000C945100DC
:100060000C9451000C94510011241FBECFEFD8E026
:10007000DEBFCDBF11E0A0E0B1E0ECE8F1E002C0EE
:1000800005900D92A230B107D9F721E0A2E0B1E0CE
:1000900001C01D92A430B207E1F70E94AC000C949D
:1000A000C4000C9400001F9B02C01E9B06C01F9939
:1000B00006C01E9906C080E005C081E003C080E054
:1000C00001C081E0882351F080910001813049F422
:1000D00082E08093010110920001089581E08093F5
:1000E00000010895809103018F5F80930301909137
:1000F00002019F5F90930201803531F495B180E257
:10010000892785B910920301809102018C3831F45E
:1001100095B182E0892785B91092020108958091F6
:1001200003018F5F80930301909102019F5F909381
:100130000201843B31F495B180E2892785B91092A0
:10014000030180910201883231F495B182E0892760
:1001500085B910920201089584B1826284B985B193
:10016000806C85B90E94530080910101813019F49F
:100170000E94720002C00E948F0081EE94E00197FD
:0C018000F1F700C00000EECFF894FFCFB4
:02018C0001016F
:00000001FF
